:020000040000FA
:100000000D28FF3FFF3FFF3FDE00030E8312A000DD
:100010000A08A1005F08A200FC290E283C23D30097
:10002000C901CA01CB01CC01CD01CE01CF01D00164
:10003000D101D2018301DE2801302E234E0803199D
:100040005628AB01AB0A45309122AB01AB0A7230A6
:100050009122AB01AB0A72309122AB01AB0A203086
:100060009122AB01AB0A20309122521939282D3050
:100070003A283E30B1000030B200AB01AB0A310883
:100080009122AB01AB0A20309122D21949282D30A0
:100090004A283E30B3000030B400AB01AB0A33084D
:1000A0009122AB01AB0A203091220800AB01AB0AD0
:1000B00056309122AB01AB0A3D3091224A08B7007D
:1000C0004908B600B501B50A3030B800273037020C
:1000D000103003193602031C78281030B60227307E
:1000E000031CB703B7020130DF005F08B8076628BA
:1000F0003030380603198128AB01AB0A3808912249
:10010000B5013030B80003303702E8300319360249
:10011000031C9528E830B6020330031CB703B7026E
:100120000130DF005F08B807832830303806031D30
:100130009C283508031DA028AB01AB0A3808A3286A
:10014000AB01AB0A203091223030B80000303702CA
:10015000643003193602031CB8286430B60200303C
:10016000031CB703B7020130DF005F08B807A628F9
:10017000AB01AB0A38089122AB01AB0A2C309122BB
:100180003030B800003037020A3003193602031C41
:10019000D4280A30B6020030031CB703B70201307E
:1001A000DF005F08B807C228AB01AB0A380891220C
:1001B000AB01AB0A3608303E91220800F4226A22D5
:1001C0003D22D21810184B294B08B9004C08BA0030
:1001D000BB01BC015008BD00BE01BF01C001103011
:1001E0000310BD0DBE0DBF0DC00DFF3E031DF02859
:1001F00039083D04C5003A083E04C6003B083F04E8
:10020000C7003C084004C8004808031D14294708DB
:10021000031D142905304602031D1229DC30450256
:10022000031D1229031C2729023083124802031DD3
:100230002529FA304702031D2529F0304602031D07
:10024000252981304502031D2529031C2A298312F3
:10025000D2174B29633083124F0203183329013020
:10026000DF005F08CF074808A8004708A700460836
:10027000A6004508A5000230AC00FA30AB00F03013
:10028000AA008030A9009E212608CA002508C900BE
:10029000CE013D22D201D21F5129CE01CE0A3D22EC
:1002A000D2017530BA00E130B900B90B5529BA0B4B
:1002B00055290130DF005F088312CD070A304D0257
:1002C000031CE128CD0100302E23AB01AB0A0A301C
:1002D000A5004F08B422303E9122AB01AB0A0A3090
:1002E000A5004F08D522303E9122AB01AB0A203049
:1002F0009122AB01AB0A20309122AB01AB0A203036
:100300009122851C85292D3086295830C100003066
:10031000C200AB01AB0A41089122AB01AB0A20300D
:100320009122051C95292D3096295830C3000030A4
:10033000C400AB01AB0A43089122E1280030B100B0
:100340000030B0000030AF000030AE0028082704B5
:10035000260425040319F329B201B20AA81BBE29F9
:100360000130AD000310A50DA60DA70DA80DAD0B16
:10037000B2290130DF005F08B207AE290130AD00BD
:100380000310AE0DAF0DB00DB10DAD0BC029280897
:100390002C02031DD52927082B02031DD529260869
:1003A0002A02031DD52925082902031CE629250850
:1003B000A9022608031C260FAA022708031C270FE0
:1003C000AB022808031C280FAC022E1401300310C6
:1003D000A80CA70CA60CA50CFF3E031DE7290130B5
:1003E000B202031DBE293108A8003008A7002F085B
:1003F000A6002E08A50008000B1C262A0508A4004C
:1004000024085306A300A318A4180E2A101CD218FF
:100410000E2A8F018E01D10110145215231C232A9C
:100420002418202A101C1D2A10100F08CC000E08BA
:10043000CB005108D000D214232AD217D215232A78
:10044000101C232A10102408D3000B100C1C352A72
:10045000101C342A0130DF005F08D107143051022C
:10046000031C342A1010D2170C10220821088A000D
:10047000200E8300DE0E5E0E0900AB0101309122DA
:10048000AB01AB0A0A30A5004F08B422303E9122DE
:10049000AB01AB0A0A30A5004F08D522303E9122AD
:1004A000AB01AB0A20309122AB01AB0A2030912284
:1004B000AB01AB0A20309122AB01AB0A2D30912267
:1004C000AB01AB0A20309122AB01AB0A2D30912257
:1004D0001C20080014300E23871207120708F03979
:1004E000033887001F2305300E231F23A6308312F5
:1004F000AE00AE0B792A00001F2383120708F039E3
:10050000023887001F238312AB0128309122AB01F0
:100510000C309122AB0106309122AB0101309122C7
:100520000800AD002B0C031C8712031887162D083A
:10053000AC0004300310AC0CFF3E031D9A2A0708E0
:10054000F0392C0487001F230F3083122D05AC00D7
:100550000708F0392C0487001F2383122B08031D82
:10056000080002300E230800A600A8012508031980
:10057000D32AA701A70AA51BC42A0310A50D013081
:10058000DF005F08A707BB2A0310A80D2508260275
:10059000031CCE2A2508A60228140310A50C01303E
:1005A000A702031DC42A28080800A8000830A900D3
:1005B000AA012808A60007300310A60CFF3E031D61
:1005C000DC2A2A08A70027072604AA000310A80D82
:1005D00025082A02031CEE2A2508AA020130A902D6
:1005E000031DD92A2A0808000F30831685008701C9
:1005F000910107308312990083168113073095000B
:1006000007309600831290010508D3000B108B155C
:100610000C1083160C140B178B1708008312A700FD
:1006200001308312A702270A031908000730A60029
:100630007D30A500A50B1A2BA60B1A2B102B8312AD
:1006400007164230A500A50B232B000083120712CA
:100650004230A500A50B2A2B00000800AE002E0892
:10066000031D342B8030352BC030AF000030B0007C
:10067000AB012F0891220800FF34FF3FFF3FFF3FEF
:02400E00823FEF
:00000001FF
