:020000040000FA
:100000000D28FF3FFF3FFF3FDE00030E8312A000DD
:100010000A08A1005F08A200102A0E285823D50064
:100020008313493084005530502383011728082357
:100030007E225122D418101886284D08B9004E0887
:10004000BA00BB01BC015208BD00BE01BF01C00126
:1000500010300310BD0DBE0DBF0DC00DFF3E031DC2
:10006000292839083D04C5003A083E04C6003B086B
:100070003F04C7003C084004C8004808031D4D2841
:100080004708031D4D2805304602031D4B28DC3070
:100090004502031D4B28031C6028023083124802CE
:1000A000031D5E28FA304702031D5E28F030460229
:1000B000031D5E2881304502031D5E28031C632852
:1000C0008312D417862863308312510203186C28D8
:1000D0000130DF005F08D1074808A8004708A700E3
:1000E0004608A6004508A5000230AC00FA30AB0077
:1000F000F030AA008030A900B2212608CC002508E3
:10010000CB00D001C901CA015122D401D41F8E28CD
:10011000D001D00AC901CA015122D4017530BA00F8
:10012000E130B900B90B9228BA0B9228831250081B
:100130000319AC280130C9070318CA0A0030CA07DE
:1001400000304A027D3003194902031CAC28C90162
:10015000CA01D001D40151220130DF005F08CF076E
:100160000A304F02031C1A28CF0100304223AB0192
:10017000AB0A0A30A5005108C822303EA522AB01C7
:10018000AB0A0A30A5005108E922303EA522AB0196
:10019000AB0A2030A522AB01AB0A2030A522AB016F
:1001A000AB0A2030A522851CD7282D30D8285830FE
:1001B000C1000030C200AB01AB0A4108A522AB016F
:1001C000AB0A2030A522051CE7282D30E82858303E
:1001D000C3000030C400AB01AB0A4308A5221A28B3
:1001E00001304223500803192A29AB01AB0A4530DC
:1001F000A522AB01AB0A7230A522AB01AB0A72306B
:10020000A522AB01AB0A2030A522AB01AB0A2030FE
:10021000A52254190D292D300E293E30B100003091
:10022000B200AB01AB0A3108A522AB01AB0A20300A
:10023000A522D4191D292D301E293E30B3000030CF
:10024000B400AB01AB0A3308A522AB01AB0A2030E6
:10025000A5220800AB01AB0A5630A522AB01AB0AC0
:100260003D30A5224C08B7004B08B600B501B50AD1
:100270003030B80027303702103003193602031C23
:100280004C291030B6022730031CB703B7020130E7
:10029000DF005F08B8073A293030380603195529BE
:1002A000AB01AB0A3808A522B5013030B8000330E5
:1002B0003702E83003193602031C6929E830B60218
:1002C0000330031CB703B7020130DF005F08B80733
:1002D000572930303806031D70293508031D74294D
:1002E000AB01AB0A38087729AB01AB0A2030A52255
:1002F0003030B80000303702643003193602031C76
:100300008C296430B6020030031CB703B7020130F9
:10031000DF005F08B8077A29AB01AB0A3808A522CD
:10032000AB01AB0A2C30A5223030B80000303702C8
:100330000A3003193602031CA8290A30B60200301D
:10034000031CB703B7020130DF005F08B807962926
:10035000AB01AB0A3808A522AB01AB0A3608303E28
:10036000A52208000030B1000030B0000030AF001E
:100370000030AE0028082704260425040319072AA4
:10038000B201B20AA81BD2290130AD000310A50D9D
:10039000A60DA70DA80DAD0BC6290130DF005F0823
:1003A000B207C2290130AD000310AE0DAF0DB00D84
:1003B000B10DAD0BD42928082C02031DE92927080B
:1003C0002B02031DE92926082A02031DE929250815
:1003D0002902031CFA292508A9022608031C260F56
:1003E000AA022708031C270FAB022808031C280FAA
:1003F000AC022E1401300310A80CA70CA60CA50CFF
:10040000FF3E031DFB290130B202031DD229310832
:10041000A8003008A7002F08A6002E08A500080095
:100420000B1C3A2A0508A40024085506A300A318AB
:10043000A418222A101CD418222A8F018E01D3015D
:1004400010145415231C372A2418342A101C312A5E
:1004500010100F08CE000E08CD005308D200D4149F
:10046000372AD417D415372A101C372A101024081D
:10047000D5000B100C1C492A101C482A0130DF0043
:100480005F08D30714305302031C482A1010D417F6
:100490000C10220821088A00200E8300DE0E5E0E5A
:1004A0000900AB010130A522AB01AB0A0A30A5005F
:1004B0005108C822303EA522AB01AB0A0A30A50084
:1004C0005108E922303EA522AB01AB0A2030A5221B
:1004D000AB01AB0A2030A522AB01AB0A2030A5222C
:1004E000AB01AB0A2D30A522AB01AB0A2030A5220F
:1004F000AB01AB0A2D30A522F020080014302223D6
:10050000871207120708F0390338870033230530B4
:1005100022233323A6308312AE00AE0B8D2A0000B7
:10052000332383120708F0390238870033238312FC
:10053000AB012830A522AB010C30A522AB0106305F
:10054000A522AB010130A5220800AD002B0C031C35
:100550008712031887162D08AC0004300310AC0C6A
:10056000FF3E031DAE2A0708F0392C048700332311
:100570000F3083122D05AC000708F0392C048700DA
:10058000332383122B08031D0800023022230800A6
:10059000A600A80125080319E72AA701A70AA51B99
:1005A000D82A0310A50D0130DF005F08A707CF2A66
:1005B0000310A80D25082602031CE22A2508A6021E
:1005C00028140310A50C0130A702031DD82A2808FF
:1005D0000800A8000830A900AA012808A6000730D2
:1005E0000310A60CFF3E031DF02A2A08A7002707C8
:1005F0002604AA000310A80D25082A02031C022BBA
:100600002508AA020130A902031DED2A2A080800C4
:100610000F308316850087019101073083129900FE
:1006200083168113073095000730960083129001DE
:100630000508D5000B108B150C1083160C140B1726
:100640008B1708008312A70001308312A702270A24
:10065000031908000730A6007D30A500A50B2E2B3E
:10066000A60B2E2B242B831207164230A500A50BB8
:10067000372B0000831207124230A500A50B3E2B3A
:1006800000000800AE002E08031D482B8030492BC7
:10069000C030AF000030B000AB012F08A522080029
:1006A00064008001840A0406031900340406512BF7
:1006B000FF34FF3FFF3FFF3FFF3FFF3FFF3FFF3F55
:02400E00823FEF
:00000001FF
