:100000000B28FF3FFF3FFF3FDE00030E8312A000DF
:100010000A08A100592A0C2839308313840048307B
:10002000D023FF30C900830115283F308316850097
:1000300087019101073083129900831681133730AD
:100040009500033096008312900187010508C900CE
:10005000C3010B108B150C1083160C140B178B1788
:100060000030D8238312C8003F304802031C3C28CC
:100070000030C801A201352383124808C200D722EC
:10008000532310184128851D05197B283230AF23D2
:10009000851D05197B28B70177283230AF2328301A
:1000A000B70A3702031C7728C801C201C501C40181
:1000B000B801FF30A2003808352340308312B80A57
:1000C0003802031C59280030A20135238312B901DC
:1000D000BA015323B701851D6F2805197B282830E5
:1000E000370203187B283230AF23B70A6B288519F3
:1000F0007B28051D4D288519A72842080319A72824
:100100003230AF238519A728C311C508031D8D28D8
:10011000C501C50A8312C4019E28C40A4408B00060
:10012000B101B01BB1033108803AB2008030320215
:10013000031D9C284208300203188A2883124408B1
:10014000C02361215323851DA3283230AF23051915
:10015000C52842080319C5283230AF230519C52820
:10016000C311C508031DBA28C501C50A4208FF3ED0
:10017000C400BD28C403C41BB6284408C0236121A1
:100180005323051DC1283230AF23431C06290530F7
:10019000C5014702DC30031946020318D5288B132A
:1001A000C30143150430BF000529FB304702F53079
:1001B00003194602031CE1288B13C30143150330C6
:1001C000D3284608A2004708A3000230A401A501D5
:1001D000A900FA30A800F030A7008030A600112254
:1001E0002308BA002208B900C311BE013A08A600CC
:1001F0003908A50070233F3083124202031CC20A53
:1002000053238B13C3014316C0018B17431D1129C0
:100210008B13C301C31543168B17C501BE01C00163
:1002200053237530B100E130B000B00B1529B10B8C
:1002300015298312C31D24296E30BE0A3E02031CF9
:100240002429BE01C3115323431E31298B13373098
:10025000C00A4002031C302943120508C9000B10D4
:100260008B17C508031D41280A30BD0A3D02031C37
:100270004128BD01A1222030A501A50A0C23203070
:10028000A501A50A0C232030A501A50A0C23851C75
:100290004B292D304C295830B300B401A501A50AD3
:1002A0000C232030A501A50A0C23051C59292D304B
:1002B0005A295830B500B601A501A50A35080C2306
:1002C00041282408BA002308B90008003A08AE0003
:1002D0003908AD00C030AB01AB0AA5010C23C31D2A
:1002E000A2294530A501A50A0C237230A501A50A53
:1002F0000C237230A501A50A0C235F30A501A50AC5
:100300000C233F080319080005303F0203180800BA
:100310003F08FF3EAA00AC01A501A50A2A08A800D3
:1003200001300310A80D0310A80D2807A9002C0800
:100330002907840087230C230430AC0A2C020318FD
:1003400008008C295630A501A50A0C233D30A501D3
:10035000A50A0C233030AF0027302E0210300319CD
:100360002D02031CB8291030AD0227300C22AC2915
:100370002F08303A0319C129A501A50A2F080C231B
:10038000AB013030AF0003302E02E83003192D02EC
:10039000031CCF29E830AD0203300C22C3292F08FB
:1003A000303A031DD629AB08031DDA29A501A50A99
:1003B0002F08DD292030A501A50A0C233030AF001D
:1003C00000302E02643003192D02031CEA29643028
:1003D0000722E029A501A50A2F080C232C30A5012E
:1003E000A50A0C233030AF0000302E020A3003196A
:1003F0002D02031CFE290A300722F429A501A50AB3
:100400002F080C23A501A50A2D08303E0C2BAD02A8
:10041000031CAE03AF0A0800031CAE03AE02AF0A12
:100420000800AA01AB01AC01AD0125082404230496
:1004300022040319502AAE01AE0AA51B252A031077
:10044000A20DA30DA40DA50D1C2A0310AA0DAB0D22
:10045000AC0DAD0D25082902031D382A24082802F9
:10046000031D382A23082702031D382A22082602E2
:10047000031C4A2A2208A6022308031C230FA702F2
:100480002408031C240FA8022508031C250FA90219
:100490002A140310A50CA40CA30CA20CAE0B252A45
:1004A0002D08A5002C08A4002B08A3002A08A200F0
:1004B00008000B1C912A0508BC004906BB00431A22
:1004C000652A6A2A0508BC000B100B18622A3C0832
:1004D000C9009A2ABB18BC18762A101C4318762A21
:1004E000C318762A8F018E011014C3143B183C18D0
:1004F000892A101C832A10100F08C700C6010E0895
:10050000C6044314892A431CC318892A43150230A0
:10051000BF000B1C8F2A0508BC000B10892A3C0861
:10052000C9000C1C9A2A101C992A1010431501307E
:10053000BF000C1021088A00200E8300DE0E5E0E24
:100540000900C508031DB72A3F304202031CAC2A2C
:100550003F30AA00AB01B22A4208AA00AB01AA0AA6
:100560000319AB0A2B08A9002A08A800BF2A4408CF
:10057000A800A901A81BA903A80A0319A90A280809
:10058000AD003030AC000A302D02031CCB2A0A30FB
:10059000AD02AC0AC32A8030A5010C23A501A50A2F
:1005A0002C080C23A501A50A2D08303E0C2B143075
:1005B000AF23C101410820390338C10087009D23C2
:1005C0000530AF23410887009D23A6308312A80081
:1005D000A80BE82A00008312410887009D23A6305B
:1005E0008312A800A80BF22A0000831241082039C8
:1005F0000238C10087009D230230AF232830A501B7
:100600000C230C30A5010C230630A5010C2301306E
:10061000A5010C230230AF2BA70025080319122BCC
:10062000C116132BC1120330A600A60B152B831283
:100630002708A60004300310A60CFF3E031D1B2B49
:10064000410830239D230F3083122705A60041085F
:1006500030239D238312A508031D08000230AF2B11
:1006600020392604C10087000800A30000308B1B3E
:100670000130A400230883169B00831222088316EE
:100680009A001C158B1355309D00AA309D009C14B8
:1006900083122408031D8B1703198B1383169C18D0
:1006A0004E2B1C1108000130A5010C23A122203083
:1006B000A501A50A0C232030A501A50A0C23203092
:1006C000A501A50A0C232D30A501A50A0C23203075
:1006D000A501A50A0C232D30A501A50A0C23662926
:1006E0000314480DA7002608A2002708352383120B
:1006F0002508A2002708013E35233F308312C80A8F
:1007000048020318C8014808A2000030352B033006
:100710008A000408840A8207003449344E342034A5
:1007200020344F345534543420344C346F347534C1
:100730002034483469346734203441164108870036
:100740004230A200A20BA22B0000831241124108EA
:1007500087004230A200A20BAB2B000008008312DE
:10076000A4008312A4032408FF3A031908000730E9
:10077000A3007D30A200A20BBB2BA30BBB2BB12B84
:10078000A8000314280DA900D8238312A600A701EE
:10079000A400A3012908013ED8238312A304080062
:1007A00064008001840A0406031900340406D12B76
:1007B0008312A20083169B001C141A080800FF3F36
:02400E0082FF2F
:00000001FF
